{
  "contractName": "LabResults",
  "abi": [
    {
      "anonymous": false,
      "inputs": [
        {
          "indexed": false,
          "internalType": "address",
          "name": "doctor",
          "type": "address"
        }
      ],
      "name": "DoctorAuthorized",
      "type": "event"
    },
    {
      "anonymous": false,
      "inputs": [
        {
          "indexed": false,
          "internalType": "string",
          "name": "resultId",
          "type": "string"
        },
        {
          "indexed": true,
          "internalType": "address",
          "name": "patient",
          "type": "address"
        },
        {
          "indexed": false,
          "internalType": "string",
          "name": "encryptedData",
          "type": "string"
        }
      ],
      "name": "LabResultAdded",
      "type": "event"
    },
    {
      "inputs": [
        {
          "internalType": "address",
          "name": "",
          "type": "address"
        }
      ],
      "name": "authorizedDoctors",
      "outputs": [
        {
          "internalType": "bool",
          "name": "",
          "type": "bool"
        }
      ],
      "stateMutability": "view",
      "type": "function",
      "constant": true
    },
    {
      "inputs": [
        {
          "internalType": "string",
          "name": "",
          "type": "string"
        }
      ],
      "name": "labResults",
      "outputs": [
        {
          "internalType": "address",
          "name": "patient",
          "type": "address"
        },
        {
          "internalType": "string",
          "name": "encryptedData",
          "type": "string"
        }
      ],
      "stateMutability": "view",
      "type": "function",
      "constant": true
    },
    {
      "inputs": [
        {
          "internalType": "address",
          "name": "doctor",
          "type": "address"
        }
      ],
      "name": "authorizeDoctor",
      "outputs": [],
      "stateMutability": "nonpayable",
      "type": "function"
    },
    {
      "inputs": [
        {
          "internalType": "string",
          "name": "resultId",
          "type": "string"
        },
        {
          "internalType": "address",
          "name": "patient",
          "type": "address"
        },
        {
          "internalType": "string",
          "name": "encryptedData",
          "type": "string"
        }
      ],
      "name": "addLabResult",
      "outputs": [],
      "stateMutability": "nonpayable",
      "type": "function"
    },
    {
      "inputs": [
        {
          "internalType": "string",
          "name": "resultId",
          "type": "string"
        }
      ],
      "name": "getLabResult",
      "outputs": [
        {
          "components": [
            {
              "internalType": "address",
              "name": "patient",
              "type": "address"
            },
            {
              "internalType": "string",
              "name": "encryptedData",
              "type": "string"
            }
          ],
          "internalType": "struct LabResults.LabResult",
          "name": "",
          "type": "tuple"
        }
      ],
      "stateMutability": "view",
      "type": "function",
      "constant": true
    }
  ],
  "bytecode": "0x608060405234801561001057600080fd5b50610beb806100206000396000f3fe608060405234801561001057600080fd5b50600436106100575760003560e01c80632d3975f01461005c5780633d1b86931461008c57806358c9202c146100bc578063749b713e146100d8578063bef0b84114610109575b600080fd5b610076600480360381019061007191906106b8565b610125565b6040516100839190610950565b60405180910390f35b6100a660048036038101906100a191906106e1565b610145565b6040516100b391906109c2565b60405180910390f35b6100d660048036038101906100d191906106b8565b610265565b005b6100f260048036038101906100ed91906106e1565b6102f5565b604051610100929190610920565b60405180910390f35b610123600480360381019061011e9190610722565b6103d7565b005b60016020528060005260406000206000915054906101000a900460ff1681565b61014d610568565b60008260405161015d91906108ee565b90815260200160405180910390206040518060400160405290816000820160009054906101000a900473ffffffffffffffffffffffffffffffffffffffff1673ffffffffffffffffffffffffffffffffffffffff1673ffffffffffffffffffffffffffffffffffffffff1681526020016001820180546101dc90610afd565b80601f016020809104026020016040519081016040528092919081815260200182805461020890610afd565b80156102555780601f1061022a57610100808354040283529160200191610255565b820191906000526020600020905b81548152906001019060200180831161023857829003601f168201915b5050505050815250509050919050565b60018060008373ffffffffffffffffffffffffffffffffffffffff1673ffffffffffffffffffffffffffffffffffffffff16815260200190815260200160002060006101000a81548160ff0219169083151502179055507ea8f5cec2bb2e273b1757cce595776dacdc60b8c5245756d69fa2bd0b2833cc816040516102ea9190610905565b60405180910390a150565b6000818051602081018201805184825260208301602085012081835280955050505050506000915090508060000160009054906101000a900473ffffffffffffffffffffffffffffffffffffffff169080600101805461035490610afd565b80601f016020809104026020016040519081016040528092919081815260200182805461038090610afd565b80156103cd5780601f106103a2576101008083540402835291602001916103cd565b820191906000526020600020905b8154815290600101906020018083116103b057829003601f168201915b5050505050905082565b600160003373ffffffffffffffffffffffffffffffffffffffff1673ffffffffffffffffffffffffffffffffffffffff16815260200190815260200160002060009054906101000a900460ff16610463576040517f08c379a000000000000000000000000000000000000000000000000000000000815260040161045a906109a2565b60405180910390fd5b60405180604001604052808373ffffffffffffffffffffffffffffffffffffffff1681526020018281525060008460405161049e91906108ee565b908152602001604051809103902060008201518160000160006101000a81548173ffffffffffffffffffffffffffffffffffffffff021916908373ffffffffffffffffffffffffffffffffffffffff160217905550602082015181600101908051906020019061050f929190610598565b509050508173ffffffffffffffffffffffffffffffffffffffff167f28b332a4d220c4ecd933d75605adff8224027308fc7eb4c1535459580eb38d7f848360405161055b92919061096b565b60405180910390a2505050565b6040518060400160405280600073ffffffffffffffffffffffffffffffffffffffff168152602001606081525090565b8280546105a490610afd565b90600052602060002090601f0160209004810192826105c6576000855561060d565b82601f106105df57805160ff191683800117855561060d565b8280016001018555821561060d579182015b8281111561060c5782518255916020019190600101906105f1565b5b50905061061a919061061e565b5090565b5b8082111561063757600081600090555060010161061f565b5090565b600061064e61064984610a15565b6109e4565b90508281526020810184848401111561066657600080fd5b610671848285610abb565b509392505050565b60008135905061068881610b9e565b92915050565b600082601f83011261069f57600080fd5b81356106af84826020860161063b565b91505092915050565b6000602082840312156106ca57600080fd5b60006106d884828501610679565b91505092915050565b6000602082840312156106f357600080fd5b600082013567ffffffffffffffff81111561070d57600080fd5b6107198482850161068e565b91505092915050565b60008060006060848603121561073757600080fd5b600084013567ffffffffffffffff81111561075157600080fd5b61075d8682870161068e565b935050602061076e86828701610679565b925050604084013567ffffffffffffffff81111561078b57600080fd5b6107978682870161068e565b9150509250925092565b6107aa81610a7d565b82525050565b6107b981610a7d565b82525050565b6107c881610a8f565b82525050565b60006107d982610a45565b6107e38185610a50565b93506107f3818560208601610aca565b6107fc81610b8d565b840191505092915050565b600061081282610a45565b61081c8185610a61565b935061082c818560208601610aca565b61083581610b8d565b840191505092915050565b600061084b82610a45565b6108558185610a72565b9350610865818560208601610aca565b80840191505092915050565b600061087e601683610a61565b91507f596f7520617265206e6f7420617574686f72697a6564000000000000000000006000830152602082019050919050565b60006040830160008301516108c960008601826107a1565b50602083015184820360208601526108e182826107ce565b9150508091505092915050565b60006108fa8284610840565b915081905092915050565b600060208201905061091a60008301846107b0565b92915050565b600060408201905061093560008301856107b0565b81810360208301526109478184610807565b90509392505050565b600060208201905061096560008301846107bf565b92915050565b600060408201905081810360008301526109858185610807565b905081810360208301526109998184610807565b90509392505050565b600060208201905081810360008301526109bb81610871565b9050919050565b600060208201905081810360008301526109dc81846108b1565b905092915050565b6000604051905081810181811067ffffffffffffffff82111715610a0b57610a0a610b5e565b5b8060405250919050565b600067ffffffffffffffff821115610a3057610a2f610b5e565b5b601f19601f8301169050602081019050919050565b600081519050919050565b600082825260208201905092915050565b600082825260208201905092915050565b600081905092915050565b6000610a8882610a9b565b9050919050565b60008115159050919050565b600073ffffffffffffffffffffffffffffffffffffffff82169050919050565b82818337600083830152505050565b60005b83811015610ae8578082015181840152602081019050610acd565b83811115610af7576000848401525b50505050565b60006002820490506001821680610b1557607f821691505b60208210811415610b2957610b28610b2f565b5b50919050565b7f4e487b7100000000000000000000000000000000000000000000000000000000600052602260045260246000fd5b7f4e487b7100000000000000000000000000000000000000000000000000000000600052604160045260246000fd5b6000601f19601f8301169050919050565b610ba781610a7d565b8114610bb257600080fd5b5056fea2646970667358221220821345ed2249505d09311b6f5bb0f381ee4cf13596f769f6b3511f5cba3d0e8464736f6c63430008000033",
  "immutableReferences": {},
  "source": "pragma solidity ^0.8.0;\n\ncontract LabResults {\n    struct LabResult {\n        address patient;\n        string encryptedData;\n    }\n\n    mapping(string => LabResult) public labResults;\n    mapping(address => bool) public authorizedDoctors;\n\n    event LabResultAdded(string resultId, address indexed patient, string encryptedData);\n    event DoctorAuthorized(address doctor);\n\n    // Modifier to check if the doctor is authorized\n    modifier onlyAuthorizedDoctor() {\n        require(authorizedDoctors[msg.sender], \"You are not authorized\");\n        _;\n    }\n\n    // Function to authorize a doctor\n    function authorizeDoctor(address doctor) public {\n        authorizedDoctors[doctor] = true;\n        emit DoctorAuthorized(doctor);\n    }\n\n    // Function to add a lab result (only authorized doctors can add)\n    function addLabResult(string memory resultId, address patient, string memory encryptedData) public onlyAuthorizedDoctor {\n        labResults[resultId] = LabResult(patient, encryptedData);\n        emit LabResultAdded(resultId, patient, encryptedData);\n    }\n\n    // Function to get a lab result (publicly accessible)\n    function getLabResult(string memory resultId) public view returns (LabResult memory) {\n        return labResults[resultId];\n    }\n}\n\n",
  "sourcePath": "/home/jasmit/ethereum-lab-results/contracts/LabResults.sol",
  "compiler": {
    "name": "solc",
    "version": "0.8.0+commit.c7dfd78e.Emscripten.clang"
  },
  "schemaVersion": "3.4.16",
  "updatedAt": "2024-10-21T23:42:22.257Z",
  "networkType": "ethereum",
  "devdoc": {
    "kind": "dev",
    "methods": {},
    "version": 1
  },
  "userdoc": {
    "kind": "user",
    "methods": {},
    "version": 1
  }
}